:03000000020228D1
:0C022800787FE4F6D8FD75813C02026F7F
:10038C001024C0F9A4B0999282F880908883C6A1F9
:10039C00868E063400000000000002220000033AA2
:0603AC0000000001210029
:1003B300E4FDFC758901D28CC3ED9FEC9E50123095
:1003C3008DF6C28D758CFC758A660DBD00010C809F
:0103D300E742
:0103D4002206
:0D03D500758901D28C120003D2AFD2A9228B
:07000300758CFC758A662272
:04013700AB07AA0662
:10013B007C007D0A12000E74242DF8E6F5347C0049
:10014B007D0AAF03AE0212000E7C007D0A12000E78
:10015B0074242DF8E6F5357C007D64AF03AE0212F6
:10016B00000E7C007D0A12000E74242DF8E6F53685
:10017B007C037DE8AF03AE0212000E7C007D0A12F9
:10018B00000E74242DF8E6F5377C277D10AF03AEF7
:10019B000212000E7C007D0A12000E74242DF8E66C
:1001AB00F538AE02AF03E4FCFD7BA07A867901F84B
:1001BB00120348E47B0AFAF9F812034874242BF86B
:1001CB00E6F539AF210521EF75F00684E5F01460F3
:1001DB001A14602114602814602F146036240570E3
:1001EB003BC292C291C29085348022C292C291D2FC
:1001FB009085358022C292D291C29085368022C2E0
:10020B0092D291D29085378022D292C291C29085A0
:0C021B00388022D292C291D290853980A6
:0102270022B4
:1002B400E4F508D200F509C294D293C290C291C267
:1002C4009275A0F7753AFF753B03753CE21203D5AE
:1002D40020A4107F647E001203B3300004C20080A7
:1002E40002D20020A70C7F0A7E001203B305091274
:0A02F40003B375220085092380D6AC
:0703E200AF23AE2202013738
:03000B000202FEF0
:1002FE00C0E0C0F0C083C082C0D075D000C000C0C6
:10030E0001C002C003C004C005C006C0071200032E
:10031E00E53B453C453A6007AA3BA93C120063D039
:10032E0007D006D005D004D003D002D001D000D023
:0A033E00D0D082D083D0F0D0E0329E
:100234000202B4E493A3F8E493A34003F68001F22A
:1002440008DFF48029E493A3F85407240CC8C333CB
:10025400C4540F4420C8834004F456800146F6DF9A
:10026400E4800B010204081020408090038CE47E9B
:10027400019360BCA3FF543F30E509541FFEE4938F
:10028400A360010ECF54C025E060A840B8E493A356
:10029400FAE493A3F8E493A3C8C582C8CAC583CA81
:1002A400F0A3C8C582C8CAC583CADFE9DEE780BE39
:0103B200004A
:10000E00BC000BBE0029EF8DF084FFADF022E4CCD6
:10001E00F875F008EF2FFFEE33FEEC33FCEE9DEC9F
:10002E00984005FCEE9DFE0FD5F0E9E4CEFD22EDE5
:10003E00F8F5F0EE8420D21CFEADF075F008EF2F2F
:10004E00FFED33FD4007985006D5F0F222C398FD20
:05005E000FD5F0EA22BD
:10034800C2D5E830E70FB2D5E4C39BFBE49AFAE4E0
:1003580099F9E498F8EC30E717B2D512037E120049
:10036800A5E4C39BFBE49AFAE499F9E498F88003BE
:100378001200A530D50DE4C39FFFE49EFEE49DFD69
:04038800E49CFC22D3
:060063008A838982E47328
:1000690075F008758200EF2FFFEE33FECD33CDCC4E
:1000790033CCC58233C5829BED9AEC99E5829840D1
:100089000CF582EE9BFEED9AFDEC99FC0FD5F0D6AE
:10009900E4CEFBE4CDFAE4CCF9A88222B800C1B9D8
:1000A9000059BA002DEC8BF084CFCECDFCE5F0CB16
:1000B900F97818EF2FFFEE33FEED33FDEC33FCEB4F
:1000C90033FB10D703994004EB99FB0FD8E5E4F90A
:1000D900FA227818EF2FFFEE33FEED33FDEC33FCF7
:1000E900C933C910D7059BE99A4007EC9BFCE99AEB
:1000F900F90FD8E0E4C9FAE4CCFB2275F010EF2F30
:10010900FFEE33FEED33FDCC33CCC833C810D7072F
:100119009BEC9AE899400AED9BFDEC9AFCE899F86A
:0E0129000FD5F0DAE4CDFBE4CCFAE4C8F922FD
:00000001FF
