:0300000002000EED
:0C000E00787FE4F6D8FD758110020055E3
:0901F200030A00000002080000ED
:1001C800E4FDFCC3ED9FEC9E5012308DF6C28D7598
:0C01D8008CFC758A660DBD00010C80E7F0
:0101E40022F8
:0D01E500758901D28C120003D2AFD2A9227D
:07000300758CFC758A662272
:1001A500E4F50DF50EF50FF510C294C293C290C299
:1001B50091C292F580750AFF750B00750C9A1201B4
:0301C500E580FED4
:10009A000509E509AE087002050814FF7C037DE82E
:1000AA00120100EF5407B40800504A9000BCF82827
:1000BA0028730200D40200D80200DC0200E0020029
:1000CA00E40200EB0200F20200F9C292800EC29230
:1000DA008011C2928014C2928017D292C291C290A9
:1000EA0022D292C291D29022D292D291C29022D29C
:0600FA0092D291D2902287
:03000B0002015B94
:10015B00C0E0C0F0C083C082C0D075D000C000C06A
:10016B0001C002C003C004C005C006C007120003D3
:10017B00E50B450C450A6007AA0BA90C120155D0DB
:10018B0007D006D005D004D003D002D001D000D0C8
:0A019B00D0D082D083D0F0D0E03243
:10001A000201A5E493A3F8E493A34003F68001F256
:10002A0008DFF48029E493A3F85407240CC8C333E7
:10003A00C4540F4420C8834004F456800146F6DFB6
:10004A00E4800B01020408102040809001F2E47E53
:10005A00019360BCA3FF543F30E509541FFEE493AB
:10006A00A360010ECF54C025E060A840B8E493A372
:10007A00FAE493A3F8E493A3C8C582C8CAC583CA9D
:10008A00F0A3C8C582C8CAC583CADFE9DEE780BE55
:0101FB000003
:10010000BC000BBE0029EF8DF084FFADF022E4CCE3
:10011000F875F008EF2FFFEE33FEEC33FCEE9DECAC
:10012000984005FCEE9DFE0FD5F0E9E4CEFD22EDF2
:10013000F8F5F0EE8420D21CFEADF075F008EF2F3C
:10014000FFED33FD4007985006D5F0F222C398FD2D
:050150000FD5F0EA22CA
:060155008A838982E47335
:00000001FF
