:03000000020411E6
:0C041100787FE4F6D8FD75812102021C02
:1003FB00C0F9A4B0999282F880908883C6A1868EAA
:06040B00000000000000EB
:10021C0078087C007D007BFF7A0379FB7E007F10E1
:10022C001200D378187C007D007BFF7A04790B7E5A
:10023C00007F061200D3E4F51EF51FF520F521C250
:10024C0094D293D292D291C290C296AE1EAF1F7C22
:10025C00037DE81200F9ED4C60030203070521E56C
:10026C002170020520AE20FF7C007D0A1200F9747B
:10027C00082DF8E6F518AE20AF217C007D0A12009F
:10028C00F97C007D0A1200F974082DF8E6F519AE18
:10029C0020AF217C007D641200F97C007D0A1200E5
:1002AC00F974082DF8E6F51AAE20AF217C037DE831
:1002BC001200F97C007D0A1200F974082DF8E6F59D
:1002CC001BAE20AF217C277D101200F97C007D0A2B
:1002DC001200F974082DF8E6F51CAE20AF21E4FCF1
:1002EC00FD7BA07A867901F812037FE47B0AFAF988
:1002FC00F812037F74082BF8E6F51DD294051FE560
:10030C001FAE1E7002051E14FF7C007D061200F944
:10031C00EC7054ED14601B14602314602B146033C8
:10032C0014603B24057040C292C291C29085188023
:10033C008035C292C291D290851980802AC292D205
:10034C0091C290851A80801FC292D291D290851B47
:10035C00808014D292C291C290851C808009D29266
:10036C00C291D290851D80C2947F017E001203C37E
:03037C0002025525
:1003C300E4FDFC758901758CFC758A67D28CFBFA98
:1003D300C3EB9FEA9E5020308D0DC28D758CFC754A
:1003E3008A670DBD00010CC3ED9401EC940040E756
:0703F3000BBB00010A80D9D9
:0103FA0022E0
:10000300E709F608DFFA8046E709F208DFFA803EDF
:1000130088828C83E709F0A3DFFA8032E309F608CC
:10002300DFFA8078E309F208DFFA807088828C8334
:10003300E309F0A3DFFA806489828A83E0A3F608E8
:10004300DFFA805889828A83E0A3F208DFFA804CC2
:1000530080D280FA80C680D4806980F28033801099
:1000630080A680EA809A80A880DA80E280CA803302
:1000730089828A83ECFAE493A3C8C582C8CCC5837A
:10008300CCF0A3C8C582C8CCC583CCDFE9DEE7804A
:100093000D89828A83E493A3F608DFF9ECFAA9F0C9
:1000A300EDFB2289828A83ECFAE0A3C8C582C8CC1F
:1000B300C583CCF0A3C8C582C8CCC583CCDFEADE38
:1000C300E880DB89828A83E493A3F208DFF980CC9A
:1000D30088F0EF60010E4E60C388F0ED2402B40493
:1000E3000050B9F582EB2402B4040050AF2323453A
:0600F3008223900053730C
:1000F900BC000BBE0029EF8DF084FFADF022E4CCEB
:10010900F875F008EF2FFFEE33FEEC33FCEE9DECB3
:10011900984005FCEE9DFE0FD5F0E9E4CEFD22EDF9
:10012900F8F5F0EE8420D21CFEADF075F008EF2F43
:10013900FFED33FD4007985006D5F0F222C398FD34
:050149000FD5F0EA22D1
:10037F00C2D5E830E70FB2D5E4C39BFBE49AFAE4A9
:10038F0099F9E498F8EC30E717B2D51203B51201DA
:10039F008AE4C39BFBE49AFAE499F9E498F88003A2
:1003AF0012018A30D50DE4C39FFFE49EFEE49DFD4C
:0403BF00E49CFC229C
:10014E0075F008758200EF2FFFEE33FECD33CDCC68
:10015E0033CCC58233C5829BED9AEC99E5829840EB
:10016E000CF582EE9BFEED9AFDEC99FC0FD5F0D6C8
:10017E00E4CEFBE4CDFAE4CCF9A88222B800C1B9F2
:10018E000059BA002DEC8BF084CFCECDFCE5F0CB30
:10019E00F97818EF2FFFEE33FEED33FDEC33FCEB69
:1001AE0033FB10D703994004EB99FB0FD8E5E4F924
:1001BE00FA227818EF2FFFEE33FEED33FDEC33FC11
:1001CE00C933C910D7059BE99A4007EC9BFCE99A05
:1001DE00F90FD8E0E4C9FAE4CCFB2275F010EF2F4A
:1001EE00FFEE33FEED33FDCC33CCC833C810D7074A
:1001FE009BEC9AE899400AED9BFDEC9AFCE899F885
:0E020E000FD5F0DAE4CDFBE4CCFAE4C8F92217
:00000001FF
